{
  "address": "0x23D6AD8ED8186970f494662F8D10e8e0Da09ce5B",
  "abi": [
    {
      "inputs": [
        {
          "internalType": "address",
          "name": "_owner",
          "type": "address"
        }
      ],
      "stateMutability": "nonpayable",
      "type": "constructor"
    },
    {
      "anonymous": false,
      "inputs": [
        {
          "indexed": true,
          "internalType": "address",
          "name": "greetingSetter",
          "type": "address"
        },
        {
          "indexed": false,
          "internalType": "string",
          "name": "newGreeting",
          "type": "string"
        },
        {
          "indexed": false,
          "internalType": "bool",
          "name": "premium",
          "type": "bool"
        },
        {
          "indexed": false,
          "internalType": "uint256",
          "name": "value",
          "type": "uint256"
        }
      ],
      "name": "GreetingChange",
      "type": "event"
    },
    {
      "anonymous": false,
      "inputs": [
        {
          "indexed": true,
          "internalType": "address",
          "name": "user",
          "type": "address"
        },
        {
          "indexed": false,
          "internalType": "uint256",
          "name": "number",
          "type": "uint256"
        }
      ],
      "name": "NumberUpdated",
      "type": "event"
    },
    {
      "inputs": [],
      "name": "greeting",
      "outputs": [
        {
          "internalType": "string",
          "name": "",
          "type": "string"
        }
      ],
      "stateMutability": "view",
      "type": "function"
    },
    {
      "inputs": [],
      "name": "owner",
      "outputs": [
        {
          "internalType": "address",
          "name": "",
          "type": "address"
        }
      ],
      "stateMutability": "view",
      "type": "function"
    },
    {
      "inputs": [],
      "name": "premium",
      "outputs": [
        {
          "internalType": "bool",
          "name": "",
          "type": "bool"
        }
      ],
      "stateMutability": "view",
      "type": "function"
    },
    {
      "inputs": [
        {
          "internalType": "string",
          "name": "_newGreeting",
          "type": "string"
        }
      ],
      "name": "setGreeting",
      "outputs": [],
      "stateMutability": "payable",
      "type": "function"
    },
    {
      "inputs": [
        {
          "internalType": "uint256",
          "name": "_number",
          "type": "uint256"
        }
      ],
      "name": "storeNumber",
      "outputs": [],
      "stateMutability": "nonpayable",
      "type": "function"
    },
    {
      "inputs": [],
      "name": "totalCounter",
      "outputs": [
        {
          "internalType": "uint256",
          "name": "",
          "type": "uint256"
        }
      ],
      "stateMutability": "view",
      "type": "function"
    },
    {
      "inputs": [
        {
          "internalType": "address",
          "name": "",
          "type": "address"
        }
      ],
      "name": "userGreetingCounter",
      "outputs": [
        {
          "internalType": "uint256",
          "name": "",
          "type": "uint256"
        }
      ],
      "stateMutability": "view",
      "type": "function"
    },
    {
      "inputs": [
        {
          "internalType": "address",
          "name": "",
          "type": "address"
        }
      ],
      "name": "userNumbers",
      "outputs": [
        {
          "internalType": "uint256",
          "name": "",
          "type": "uint256"
        }
      ],
      "stateMutability": "view",
      "type": "function"
    },
    {
      "inputs": [],
      "name": "withdraw",
      "outputs": [],
      "stateMutability": "nonpayable",
      "type": "function"
    },
    {
      "stateMutability": "payable",
      "type": "receive"
    }
  ],
  "transactionHash": "0x7f27eb0030d65b2f073eadc48666ac414e56cb31128af2ebb3d1dd75381c4171",
  "args": [
    "0xdCDd4496f65A035397BfA8b6a8442507D90cab08"
  ],
  "numDeployments": 1,
  "solcInputHash": "2d42d2c8bfec30ab7c990789d391ba41",
  "bytecode": "0x60e0604052601c60a09081527f4275696c64696e6720556e73746f707061626c6520417070732121210000000060c05260009061003c9082610127565b506001805460ff19169055600060025534801561005857600080fd5b50604051610b09380380610b09833981016040819052610077916101e6565b6001600160a01b0316608052610216565b634e487b7160e01b600052604160045260246000fd5b600181811c908216806100b257607f821691505b6020821081036100d257634e487b7160e01b600052602260045260246000fd5b50919050565b601f82111561012257600081815260208120601f850160051c810160208610156100ff5750805b601f850160051c820191505b8181101561011e5782815560010161010b565b5050505b505050565b81516001600160401b0381111561014057610140610088565b6101548161014e845461009e565b846100d8565b602080601f83116001811461018957600084156101715750858301515b600019600386901b1c1916600185901b17855561011e565b600085815260208120601f198616915b828110156101b857888601518255948401946001909101908401610199565b50858210156101d65787850151600019600388901b60f8161c191681555b5050505050600190811b01905550565b6000602082840312156101f857600080fd5b81516001600160a01b038116811461020f57600080fd5b9392505050565b6080516108cb61023e6000396000818160ff01528181610206015261026c01526108cb6000f3fe60806040526004361061008a5760003560e01c8063a413686211610059578063a41368621461014f578063b633941814610162578063cea49c3c14610182578063e0a73a93146101af578063ef690cc0146101d957600080fd5b80633ccfd60b1461009657806377df7725146100ad5780638da5cb5b146100ed57806397feba9d1461013957600080fd5b3661009157005b600080fd5b3480156100a257600080fd5b506100ab6101fb565b005b3480156100b957600080fd5b506100da6100c8366004610539565b60046020526000908152604090205481565b6040519081526020015b60405180910390f35b3480156100f957600080fd5b506101217f000000000000000000000000000000000000000000000000000000000000000081565b6040516001600160a01b0390911681526020016100e4565b34801561014557600080fd5b506100da60025481565b6100ab61015d36600461057f565b610325565b34801561016e57600080fd5b506100ab61017d366004610630565b6103f6565b34801561018e57600080fd5b506100da61019d366004610539565b60036020526000908152604090205481565b3480156101bb57600080fd5b506001546101c99060ff1681565b60405190151581526020016100e4565b3480156101e557600080fd5b506101ee61043a565b6040516100e4919061068f565b336001600160a01b037f000000000000000000000000000000000000000000000000000000000000000016146102685760405162461bcd60e51b815260206004820152600d60248201526c2737ba103a34329027bbb732b960991b60448201526064015b60405180910390fd5b60007f00000000000000000000000000000000000000000000000000000000000000006001600160a01b03164760405160006040518083038185875af1925050503d80600081146102d5576040519150601f19603f3d011682016040523d82523d6000602084013e6102da565b606091505b50509050806103225760405162461bcd60e51b81526020600482015260146024820152732330b4b632b2103a379039b2b7321022ba3432b960611b604482015260640161025f565b50565b6103486040518060600160405280602181526020016108756021913982336104c8565b6000610354828261072a565b5060016002600082825461036891906107ea565b909155505033600090815260036020526040812080546001929061038d9084906107ea565b909155505034156103a9576001805460ff1916811790556103b4565b6001805460ff191690555b60405133907f94cbd7e04dca26a7667654f6448b2ca0a40fec602118dc5fd8c82b9cf3c645ad906103eb9084903480151591610811565b60405180910390a250565b3360008181526004602052604090819020839055517f34fc9a8d030d354e59e2bf2e5d0f37f63355b58fdbef38546a8af45588c1c0c1906103eb9084815260200190565b60008054610447906106a2565b80601f0160208091040260200160405190810160405280929190818152602001828054610473906106a2565b80156104c05780601f10610495576101008083540402835291602001916104c0565b820191906000526020600020905b8154815290600101906020018083116104a357829003601f168201915b505050505081565b61050f8383836040516024016104e093929190610836565b60408051601f198184030181529190526020810180516001600160e01b03166395ed019560e01b179052610514565b505050565b6103228160006a636f6e736f6c652e6c6f679050600080835160208501845afa505050565b60006020828403121561054b57600080fd5b81356001600160a01b038116811461056257600080fd5b9392505050565b634e487b7160e01b600052604160045260246000fd5b60006020828403121561059157600080fd5b813567ffffffffffffffff808211156105a957600080fd5b818401915084601f8301126105bd57600080fd5b8135818111156105cf576105cf610569565b604051601f8201601f19908116603f011681019083821181831017156105f7576105f7610569565b8160405282815287602084870101111561061057600080fd5b826020860160208301376000928101602001929092525095945050505050565b60006020828403121561064257600080fd5b5035919050565b6000815180845260005b8181101561066f57602081850181015186830182015201610653565b506000602082860101526020601f19601f83011685010191505092915050565b6020815260006105626020830184610649565b600181811c908216806106b657607f821691505b6020821081036106d657634e487b7160e01b600052602260045260246000fd5b50919050565b601f82111561050f57600081815260208120601f850160051c810160208610156107035750805b601f850160051c820191505b818110156107225782815560010161070f565b505050505050565b815167ffffffffffffffff81111561074457610744610569565b6107588161075284546106a2565b846106dc565b602080601f83116001811461078d57600084156107755750858301515b600019600386901b1c1916600185901b178555610722565b600085815260208120601f198616915b828110156107bc5788860151825594840194600190910190840161079d565b50858210156107da5787850151600019600388901b60f8161c191681555b5050505050600190811b01905550565b8082018082111561080b57634e487b7160e01b600052601160045260246000fd5b92915050565b6060815260006108246060830186610649565b93151560208301525060400152919050565b6060815260006108496060830186610649565b828103602084015261085b8186610649565b91505060018060a01b038316604083015294935050505056fe53657474696e67206e6577206772656574696e6720272573272066726f6d202573a264697066735822122031f98564e2902b006d402ab3d2f5ef21217d47f947b09277a2ff4f8620fc2d6464736f6c63430008110033",
  "devdoc": {
    "author": "BuidlGuidl",
    "kind": "dev",
    "methods": {
      "setGreeting(string)": {
        "params": {
          "_newGreeting": "(string memory) - new greeting to save on the contract"
        }
      }
    },
    "version": 1
  },
  "userdoc": {
    "kind": "user",
    "methods": {
      "setGreeting(string)": {
        "notice": "Function that allows anyone to change the state variable \"greeting\" of the contract and increase the counters"
      },
      "withdraw()": {
        "notice": "Function that allows the owner to withdraw all the Ether in the contract The function can only be called by the owner of the contract as defined by the isOwner modifier"
      }
    },
    "notice": "A smart contract that allows changing a state variable of the contract and tracking the changes It also allows the owner to withdraw the Ether in the contract",
    "version": 1
  },
  "storageLayout": {
    "storage": [
      {
        "astId": 8,
        "contract": "contracts/YourContract.sol:YourContract",
        "label": "greeting",
        "offset": 0,
        "slot": "0",
        "type": "t_string_storage"
      },
      {
        "astId": 11,
        "contract": "contracts/YourContract.sol:YourContract",
        "label": "premium",
        "offset": 0,
        "slot": "1",
        "type": "t_bool"
      },
      {
        "astId": 14,
        "contract": "contracts/YourContract.sol:YourContract",
        "label": "totalCounter",
        "offset": 0,
        "slot": "2",
        "type": "t_uint256"
      },
      {
        "astId": 18,
        "contract": "contracts/YourContract.sol:YourContract",
        "label": "userGreetingCounter",
        "offset": 0,
        "slot": "3",
        "type": "t_mapping(t_address,t_uint256)"
      },
      {
        "astId": 32,
        "contract": "contracts/YourContract.sol:YourContract",
        "label": "userNumbers",
        "offset": 0,
        "slot": "4",
        "type": "t_mapping(t_address,t_uint256)"
      }
    ],
    "types": {
      "t_address": {
        "encoding": "inplace",
        "label": "address",
        "numberOfBytes": "20"
      },
      "t_bool": {
        "encoding": "inplace",
        "label": "bool",
        "numberOfBytes": "1"
      },
      "t_mapping(t_address,t_uint256)": {
        "encoding": "mapping",
        "key": "t_address",
        "label": "mapping(address => uint256)",
        "numberOfBytes": "32",
        "value": "t_uint256"
      },
      "t_string_storage": {
        "encoding": "bytes",
        "label": "string",
        "numberOfBytes": "32"
      },
      "t_uint256": {
        "encoding": "inplace",
        "label": "uint256",
        "numberOfBytes": "32"
      }
    }
  }
}