{
  "address": "0xb14EE89942aFf10E3cc171fAB72e6091Ce9078dB",
  "abi": [
    {
      "inputs": [],
      "stateMutability": "nonpayable",
      "type": "constructor"
    },
    {
      "anonymous": false,
      "inputs": [
        {
          "indexed": false,
          "internalType": "string",
          "name": "newMessage",
          "type": "string"
        },
        {
          "indexed": true,
          "internalType": "address",
          "name": "newAdvertiser",
          "type": "address"
        },
        {
          "indexed": false,
          "internalType": "uint256",
          "name": "newAmount",
          "type": "uint256"
        }
      ],
      "name": "MessageUpdated",
      "type": "event"
    },
    {
      "inputs": [],
      "name": "currentAdvertiser",
      "outputs": [
        {
          "internalType": "address",
          "name": "",
          "type": "address"
        }
      ],
      "stateMutability": "view",
      "type": "function"
    },
    {
      "inputs": [],
      "name": "currentAmount",
      "outputs": [
        {
          "internalType": "uint256",
          "name": "",
          "type": "uint256"
        }
      ],
      "stateMutability": "view",
      "type": "function"
    },
    {
      "inputs": [],
      "name": "message",
      "outputs": [
        {
          "internalType": "string",
          "name": "",
          "type": "string"
        }
      ],
      "stateMutability": "view",
      "type": "function"
    },
    {
      "inputs": [],
      "name": "owner",
      "outputs": [
        {
          "internalType": "address payable",
          "name": "",
          "type": "address"
        }
      ],
      "stateMutability": "view",
      "type": "function"
    },
    {
      "inputs": [
        {
          "internalType": "string",
          "name": "newMessage",
          "type": "string"
        }
      ],
      "name": "updateMessage",
      "outputs": [],
      "stateMutability": "payable",
      "type": "function"
    },
    {
      "inputs": [
        {
          "internalType": "address payable",
          "name": "newOwner",
          "type": "address"
        }
      ],
      "name": "updateOwner",
      "outputs": [],
      "stateMutability": "nonpayable",
      "type": "function"
    }
  ],
  "transactionHash": "0x7f438eb093169ab73c5766cee250e49de269a8d92729ab90a0181ed4961f5481",
  "args": [],
  "numDeployments": 1,
  "solcInputHash": "d26dc21e100b497dcea1cf81b0e1abce",
  "bytecode": "0x608060405234801561001057600080fd5b50600380546001600160a01b0319163317905560408051808201909152601381527f57656c636f6d6520746f20417065636861696e0000000000000000000000000060208201526000906100649082610109565b506101c8565b634e487b7160e01b600052604160045260246000fd5b600181811c9082168061009457607f821691505b6020821081036100b457634e487b7160e01b600052602260045260246000fd5b50919050565b601f82111561010457600081815260208120601f850160051c810160208610156100e15750805b601f850160051c820191505b81811015610100578281556001016100ed565b5050505b505050565b81516001600160401b038111156101225761012261006a565b610136816101308454610080565b846100ba565b602080601f83116001811461016b57600084156101535750858301515b600019600386901b1c1916600185901b178555610100565b600085815260208120601f198616915b8281101561019a5788860151825594840194600190910190840161017b565b50858210156101b85787850151600019600388901b60f8161c191681555b5050505050600190811b01905550565b610620806101d76000396000f3fe6080604052600436106100555760003560e01c80631923be241461005a578063880cdc311461006f5780638da5cb5b1461008f578063d3850356146100cc578063e21f37ce146100ec578063f441b1c81461010e575b600080fd5b61006d610068366004610361565b610132565b005b34801561007b57600080fd5b5061006d61008a3660046103d3565b610248565b34801561009b57600080fd5b506003546100af906001600160a01b031681565b6040516001600160a01b0390911681526020015b60405180910390f35b3480156100d857600080fd5b506001546100af906001600160a01b031681565b3480156100f857600080fd5b506101016102d3565b6040516100c39190610403565b34801561011a57600080fd5b5061012460025481565b6040519081526020016100c3565b600254341161019f5760405162461bcd60e51b815260206004820152602e60248201527f4d7573742073656e64206d6f7265204574686572207468616e2074686520707260448201526d32bb34b7bab99030b6b7bab73a1760911b60648201526084015b60405180910390fd5b60006101ac8284836104f0565b50600180546001600160a01b031916331790553460028190556003546040516001600160a01b03919091169180156108fc02916000818181858888f193505050501580156101fe573d6000803e3d6000fd5b50336001600160a01b03167fddbee71def502054f1dcb5e47f357e97a8f8f38cf0140e74d1724adad843aca883833460405161023c939291906105b1565b60405180910390a25050565b6003546001600160a01b031633146102b15760405162461bcd60e51b815260206004820152602660248201527f4f6e6c7920746865206f776e65722063616e2063616c6c20746869732066756e60448201526531ba34b7b71760d11b6064820152608401610196565b600380546001600160a01b0319166001600160a01b0392909216919091179055565b600080546102e090610467565b80601f016020809104026020016040519081016040528092919081815260200182805461030c90610467565b80156103595780601f1061032e57610100808354040283529160200191610359565b820191906000526020600020905b81548152906001019060200180831161033c57829003601f168201915b505050505081565b6000806020838503121561037457600080fd5b823567ffffffffffffffff8082111561038c57600080fd5b818501915085601f8301126103a057600080fd5b8135818111156103af57600080fd5b8660208285010111156103c157600080fd5b60209290920196919550909350505050565b6000602082840312156103e557600080fd5b81356001600160a01b03811681146103fc57600080fd5b9392505050565b600060208083528351808285015260005b8181101561043057858101830151858201604001528201610414565b506000604082860101526040601f19601f8301168501019250505092915050565b634e487b7160e01b600052604160045260246000fd5b600181811c9082168061047b57607f821691505b60208210810361049b57634e487b7160e01b600052602260045260246000fd5b50919050565b601f8211156104eb57600081815260208120601f850160051c810160208610156104c85750805b601f850160051c820191505b818110156104e7578281556001016104d4565b5050505b505050565b67ffffffffffffffff83111561050857610508610451565b61051c836105168354610467565b836104a1565b6000601f84116001811461055057600085156105385750838201355b600019600387901b1c1916600186901b1783556105aa565b600083815260209020601f19861690835b828110156105815786850135825560209485019460019092019101610561565b508682101561059e5760001960f88860031b161c19848701351681555b505060018560011b0183555b5050505050565b604081528260408201528284606083013760006060848301015260006060601f19601f860116830101905082602083015294935050505056fea2646970667358221220735b1acaed2011f518a837dac90873b12fe16b40e35bf420ae22fd2a795e745b64736f6c63430008110033",
  "devdoc": {
    "kind": "dev",
    "methods": {},
    "version": 1
  },
  "userdoc": {
    "kind": "user",
    "methods": {},
    "version": 1
  },
  "storageLayout": {
    "storage": [
      {
        "astId": 3,
        "contract": "contracts/BidBoard.sol:BidBoard",
        "label": "message",
        "offset": 0,
        "slot": "0",
        "type": "t_string_storage"
      },
      {
        "astId": 5,
        "contract": "contracts/BidBoard.sol:BidBoard",
        "label": "currentAdvertiser",
        "offset": 0,
        "slot": "1",
        "type": "t_address"
      },
      {
        "astId": 7,
        "contract": "contracts/BidBoard.sol:BidBoard",
        "label": "currentAmount",
        "offset": 0,
        "slot": "2",
        "type": "t_uint256"
      },
      {
        "astId": 9,
        "contract": "contracts/BidBoard.sol:BidBoard",
        "label": "owner",
        "offset": 0,
        "slot": "3",
        "type": "t_address_payable"
      }
    ],
    "types": {
      "t_address": {
        "encoding": "inplace",
        "label": "address",
        "numberOfBytes": "20"
      },
      "t_address_payable": {
        "encoding": "inplace",
        "label": "address payable",
        "numberOfBytes": "20"
      },
      "t_string_storage": {
        "encoding": "bytes",
        "label": "string",
        "numberOfBytes": "32"
      },
      "t_uint256": {
        "encoding": "inplace",
        "label": "uint256",
        "numberOfBytes": "32"
      }
    }
  }
}