{
  "address": "0xb4fbd5c9e61ecb3472dc778079a8cb15787d2290",
  "abi": [
    {
      "inputs": [
        {
          "internalType": "address",
          "name": "_owner",
          "type": "address"
        },
        {
          "internalType": "address",
          "name": "_verifier",
          "type": "address"
        },
        {
          "internalType": "string",
          "name": "_question",
          "type": "string"
        }
      ],
      "stateMutability": "nonpayable",
      "type": "constructor"
    },
    {
      "inputs": [
        {
          "internalType": "address",
          "name": "owner",
          "type": "address"
        }
      ],
      "name": "OwnableInvalidOwner",
      "type": "error"
    },
    {
      "inputs": [
        {
          "internalType": "address",
          "name": "account",
          "type": "address"
        }
      ],
      "name": "OwnableUnauthorizedAccount",
      "type": "error"
    },
    {
      "inputs": [
        {
          "internalType": "uint256",
          "name": "commitment",
          "type": "uint256"
        }
      ],
      "name": "Voting__CommitmentAlreadyAdded",
      "type": "error"
    },
    {
      "inputs": [],
      "name": "Voting__EmptyTree",
      "type": "error"
    },
    {
      "inputs": [],
      "name": "Voting__InvalidProof",
      "type": "error"
    },
    {
      "inputs": [],
      "name": "Voting__InvalidRoot",
      "type": "error"
    },
    {
      "inputs": [],
      "name": "Voting__NotAllowedToVote",
      "type": "error"
    },
    {
      "inputs": [
        {
          "internalType": "bytes32",
          "name": "nullifierHash",
          "type": "bytes32"
        }
      ],
      "name": "Voting__NullifierHashAlreadyUsed",
      "type": "error"
    },
    {
      "anonymous": false,
      "inputs": [
        {
          "indexed": false,
          "internalType": "uint256",
          "name": "index",
          "type": "uint256"
        },
        {
          "indexed": false,
          "internalType": "uint256",
          "name": "value",
          "type": "uint256"
        }
      ],
      "name": "NewLeaf",
      "type": "event"
    },
    {
      "anonymous": false,
      "inputs": [
        {
          "indexed": true,
          "internalType": "address",
          "name": "previousOwner",
          "type": "address"
        },
        {
          "indexed": true,
          "internalType": "address",
          "name": "newOwner",
          "type": "address"
        }
      ],
      "name": "OwnershipTransferred",
      "type": "event"
    },
    {
      "anonymous": false,
      "inputs": [
        {
          "indexed": true,
          "internalType": "bytes32",
          "name": "nullifierHash",
          "type": "bytes32"
        },
        {
          "indexed": true,
          "internalType": "address",
          "name": "voter",
          "type": "address"
        },
        {
          "indexed": false,
          "internalType": "bool",
          "name": "vote",
          "type": "bool"
        },
        {
          "indexed": false,
          "internalType": "uint256",
          "name": "timestamp",
          "type": "uint256"
        },
        {
          "indexed": false,
          "internalType": "uint256",
          "name": "totalYes",
          "type": "uint256"
        },
        {
          "indexed": false,
          "internalType": "uint256",
          "name": "totalNo",
          "type": "uint256"
        }
      ],
      "name": "VoteCast",
      "type": "event"
    },
    {
      "anonymous": false,
      "inputs": [
        {
          "indexed": true,
          "internalType": "address",
          "name": "voter",
          "type": "address"
        }
      ],
      "name": "VoterAdded",
      "type": "event"
    },
    {
      "inputs": [
        {
          "internalType": "address[]",
          "name": "voters",
          "type": "address[]"
        },
        {
          "internalType": "bool[]",
          "name": "statuses",
          "type": "bool[]"
        }
      ],
      "name": "addVoters",
      "outputs": [],
      "stateMutability": "nonpayable",
      "type": "function"
    },
    {
      "inputs": [
        {
          "internalType": "address",
          "name": "_voter",
          "type": "address"
        }
      ],
      "name": "getVoterData",
      "outputs": [
        {
          "internalType": "bool",
          "name": "voter",
          "type": "bool"
        },
        {
          "internalType": "bool",
          "name": "registered",
          "type": "bool"
        }
      ],
      "stateMutability": "view",
      "type": "function"
    },
    {
      "inputs": [],
      "name": "getVotingData",
      "outputs": [
        {
          "internalType": "string",
          "name": "question",
          "type": "string"
        },
        {
          "internalType": "address",
          "name": "contractOwner",
          "type": "address"
        },
        {
          "internalType": "uint256",
          "name": "yesVotes",
          "type": "uint256"
        },
        {
          "internalType": "uint256",
          "name": "noVotes",
          "type": "uint256"
        },
        {
          "internalType": "uint256",
          "name": "size",
          "type": "uint256"
        },
        {
          "internalType": "uint256",
          "name": "depth",
          "type": "uint256"
        },
        {
          "internalType": "uint256",
          "name": "root",
          "type": "uint256"
        }
      ],
      "stateMutability": "view",
      "type": "function"
    },
    {
      "inputs": [],
      "name": "i_verifier",
      "outputs": [
        {
          "internalType": "contract IVerifier",
          "name": "",
          "type": "address"
        }
      ],
      "stateMutability": "view",
      "type": "function"
    },
    {
      "inputs": [],
      "name": "owner",
      "outputs": [
        {
          "internalType": "address",
          "name": "",
          "type": "address"
        }
      ],
      "stateMutability": "view",
      "type": "function"
    },
    {
      "inputs": [
        {
          "internalType": "uint256",
          "name": "_commitment",
          "type": "uint256"
        }
      ],
      "name": "register",
      "outputs": [],
      "stateMutability": "nonpayable",
      "type": "function"
    },
    {
      "inputs": [],
      "name": "renounceOwnership",
      "outputs": [],
      "stateMutability": "nonpayable",
      "type": "function"
    },
    {
      "inputs": [
        {
          "internalType": "address",
          "name": "newOwner",
          "type": "address"
        }
      ],
      "name": "transferOwnership",
      "outputs": [],
      "stateMutability": "nonpayable",
      "type": "function"
    },
    {
      "inputs": [
        {
          "internalType": "bytes",
          "name": "_proof",
          "type": "bytes"
        },
        {
          "internalType": "bytes32",
          "name": "_nullifierHash",
          "type": "bytes32"
        },
        {
          "internalType": "bytes32",
          "name": "_root",
          "type": "bytes32"
        },
        {
          "internalType": "bytes32",
          "name": "_vote",
          "type": "bytes32"
        },
        {
          "internalType": "bytes32",
          "name": "_depth",
          "type": "bytes32"
        }
      ],
      "name": "vote",
      "outputs": [],
      "stateMutability": "nonpayable",
      "type": "function"
    }
  ],
  "contractName": "Voting",
  "sourceName": "contracts/Voting.sol",
  "bytecode": "0x60a060405234801561000f575f5ffd5b5060405161104b38038061104b83398101604081905261002e91610104565b826001600160a01b03811661005c57604051631e4fbdf760e01b81525f600482015260240160405180910390fd5b61006581610086565b5060016100728282610259565b50506001600160a01b031660805250610313565b5f80546001600160a01b038381166001600160a01b0319831681178455604051919092169283917f8be0079c531659141344cd1fd0a4f28419497f9722a3daafe3b4186f6b6457e09190a35050565b80516001600160a01b03811681146100eb575f5ffd5b919050565b634e487b7160e01b5f52604160045260245ffd5b5f5f5f60608486031215610116575f5ffd5b61011f846100d5565b925061012d602085016100d5565b60408501519092506001600160401b03811115610148575f5ffd5b8401601f81018613610158575f5ffd5b80516001600160401b03811115610171576101716100f0565b604051601f8201601f19908116603f011681016001600160401b038111828210171561019f5761019f6100f0565b6040528181528282016020018810156101b6575f5ffd5b8160208401602083015e5f602083830101528093505050509250925092565b600181811c908216806101e957607f821691505b60208210810361020757634e487b7160e01b5f52602260045260245ffd5b50919050565b601f82111561025457805f5260205f20601f840160051c810160208510156102325750805b601f840160051c820191505b81811015610251575f815560010161023e565b50505b505050565b81516001600160401b03811115610272576102726100f0565b6102868161028084546101d5565b8461020d565b6020601f8211600181146102b8575f83156102a15750848201515b5f19600385901b1c1916600184901b178455610251565b5f84815260208120601f198516915b828110156102e757878501518255602094850194600190920191016102c7565b508482101561030457868401515f19600387901b60f8161c191681555b50505050600190811b01905550565b608051610d196103325f395f818161014d015261030e0152610d195ff3fe608060405234801561000f575f5ffd5b5060043610610090575f3560e01c8063b5b831e211610063578063b5b831e21461012d578063db9753a014610148578063f207564e1461016f578063f2fde38b14610182578063ff29897d14610195575f5ffd5b80631ac9b6c314610094578063715018a6146100a95780638da5cb5b146100b15780638fb4cd80146100da575b5f5ffd5b6100a76100a2366004610960565b6101a8565b005b6100a7610481565b5f546001600160a01b03165b6040516001600160a01b0390911681526020015b60405180910390f35b6101166100e8366004610a2e565b6001600160a01b03165f9081526002602090815260408083205460059092529091205460ff91821692911690565b6040805192151583529015156020830152016100d1565b610135610494565b6040516100d19796959493929190610a89565b6100bd7f000000000000000000000000000000000000000000000000000000000000000081565b6100a761017d366004610ad5565b6105d0565b6100a7610190366004610a2e565b610744565b6100a76101a3366004610b34565b610781565b826101c657604051631cdc57bb60e31b815260040160405180910390fd5b604051637a3e5e1d60e11b81526007600482015273__$40c25d1b07773c4089151465be6444093f$__9063f47cbc3a90602401602060405180830381865af4158015610214573d5f5f3e3d5ffd5b505050506040513d601f19601f820116820180604052508101906102389190610ba0565b83146102575760405163e1b55f2b60e01b815260040160405180910390fd5b60408051600480825260a082019092525f916020820160808036833701905050905084815f8151811061028c5761028c610bb7565b60200260200101818152505083816001815181106102ac576102ac610bb7565b60200260200101818152505082816002815181106102cc576102cc610bb7565b60200260200101818152505081816003815181106102ec576102ec610bb7565b6020908102919091010152604051633a94343960e21b81526001600160a01b037f0000000000000000000000000000000000000000000000000000000000000000169063ea50d0e4906103459089908590600401610bcb565b602060405180830381865afa158015610360573d5f5f3e3d5ffd5b505050506040513d601f19601f820116820180604052508101906103849190610c30565b6103a15760405163e8a02c4b60e01b815260040160405180910390fd5b5f858152600b602052604090205460ff16156103d857604051630c3ffb0960e21b8152600481018690526024015b60405180910390fd5b5f858152600b60205260409020805460ff191660011790555f1983016104115760038054905f61040783610c5f565b9190505550610426565b60048054905f61042083610c5f565b91905055505b60035460045460408051600187148152426020820152908101929092526060820152339086907fdeb132643171a42da82dca5065904dc8d9ad8cd79074da8797bc9fc046e825889060800160405180910390a3505050505050565b6104896108d1565b6104925f6108fd565b565b60605f5f5f5f5f5f600180546104a990610c77565b80601f01602080910402602001604051908101604052809291908181526020018280546104d590610c77565b80156105205780601f106104f757610100808354040283529160200191610520565b820191905f5260205f20905b81548152906001019060200180831161050357829003601f168201915b505050505096506105385f546001600160a01b031690565b6003546004805460078054600854604051637a3e5e1d60e11b815294850192909252949a509298509650919450925073__$40c25d1b07773c4089151465be6444093f$__9063f47cbc3a90602401602060405180830381865af41580156105a1573d5f5f3e3d5ffd5b505050506040513d601f19601f820116820180604052508101906105c59190610ba0565b905090919293949596565b335f9081526002602052604090205460ff1615806105fc5750335f9081526005602052604090205460ff165b1561061a57604051632fa7af6960e01b815260040160405180910390fd5b5f8181526006602052604090205460ff161561064c57604051636d6592b960e11b8152600481018290526024016103cf565b5f8181526006602090815260408083208054600160ff1991821681179092553385526005909352928190208054909216909217905551632f85497160e01b8152600760048201526024810182905273__$40c25d1b07773c4089151465be6444093f$__90632f85497190604401602060405180830381865af41580156106d4573d5f5f3e3d5ffd5b505050506040513d601f19601f820116820180604052508101906106f89190610ba0565b506007547f83086dd2f9a7759c568afebf9730985f32eada5336224c32f153e8089d8f5ea79061072a90600190610caf565b60408051918252602082018490520160405180910390a150565b61074c6108d1565b6001600160a01b03811661077557604051631e4fbdf760e01b81525f60048201526024016103cf565b61077e816108fd565b50565b6107896108d1565b8281146107e45760405162461bcd60e51b815260206004820152602360248201527f566f7465727320616e64207374617475736573206c656e677468206d69736d616044820152620e8c6d60eb1b60648201526084016103cf565b5f5b838110156108ca5782828281811061080057610800610bb7565b90506020020160208101906108159190610cc8565b60025f87878581811061082a5761082a610bb7565b905060200201602081019061083f9190610a2e565b6001600160a01b0316815260208101919091526040015f20805460ff191691151591909117905584848281811061087857610878610bb7565b905060200201602081019061088d9190610a2e565b6001600160a01b03167fa636f4a11e2d3ba7f89d042ecb0a6b886716e98cd49d8fd876ee0f73bced42b860405160405180910390a26001016107e6565b5050505050565b5f546001600160a01b031633146104925760405163118cdaa760e01b81523360048201526024016103cf565b5f80546001600160a01b038381166001600160a01b0319831681178455604051919092169283917f8be0079c531659141344cd1fd0a4f28419497f9722a3daafe3b4186f6b6457e09190a35050565b634e487b7160e01b5f52604160045260245ffd5b5f5f5f5f5f60a08688031215610974575f5ffd5b853567ffffffffffffffff81111561098a575f5ffd5b8601601f8101881361099a575f5ffd5b803567ffffffffffffffff8111156109b4576109b461094c565b604051601f8201601f19908116603f0116810167ffffffffffffffff811182821017156109e3576109e361094c565b6040528181528282016020018a10156109fa575f5ffd5b816020840160208301375f602092820183015299908801359850604088013597606081013597506080013595509350505050565b5f60208284031215610a3e575f5ffd5b81356001600160a01b0381168114610a54575f5ffd5b9392505050565b5f81518084528060208401602086015e5f602082860101526020601f19601f83011685010191505092915050565b60e081525f610a9b60e083018a610a5b565b6001600160a01b039890981660208301525060408101959095526060850193909352608084019190915260a083015260c090910152919050565b5f60208284031215610ae5575f5ffd5b5035919050565b5f5f83601f840112610afc575f5ffd5b50813567ffffffffffffffff811115610b13575f5ffd5b6020830191508360208260051b8501011115610b2d575f5ffd5b9250929050565b5f5f5f5f60408587031215610b47575f5ffd5b843567ffffffffffffffff811115610b5d575f5ffd5b610b6987828801610aec565b909550935050602085013567ffffffffffffffff811115610b88575f5ffd5b610b9487828801610aec565b95989497509550505050565b5f60208284031215610bb0575f5ffd5b5051919050565b634e487b7160e01b5f52603260045260245ffd5b604081525f610bdd6040830185610a5b565b82810360208401528084518083526020830191506020860192505f5b81811015610c17578351835260209384019390920191600101610bf9565b50909695505050505050565b801515811461077e575f5ffd5b5f60208284031215610c40575f5ffd5b8151610a5481610c23565b634e487b7160e01b5f52601160045260245ffd5b5f60018201610c7057610c70610c4b565b5060010190565b600181811c90821680610c8b57607f821691505b602082108103610ca957634e487b7160e01b5f52602260045260245ffd5b50919050565b81810381811115610cc257610cc2610c4b565b92915050565b5f60208284031215610cd8575f5ffd5b8135610a5481610c2356fea26469706673582212206c842a69e33a3c6638cc3749244aaf1ad8c00b08c736479fca279ae2a6a26fa164736f6c634300081e0033",
  "linkReferences": {
    "npm/@zk-kit/lean-imt.sol@2.0.1/LeanIMT.sol": {
      "LeanIMT": [
        {
          "length": 20,
          "start": 1294
        },
        {
          "length": 20,
          "start": 2203
        },
        {
          "length": 20,
          "start": 2510
        }
      ]
    }
  },
  "deployedLinkReferences": {
    "npm/@zk-kit/lean-imt.sol@2.0.1/LeanIMT.sol": {
      "LeanIMT": [
        {
          "length": 20,
          "start": 476
        },
        {
          "length": 20,
          "start": 1385
        },
        {
          "length": 20,
          "start": 1692
        }
      ]
    }
  },
  "immutableReferences": {
    "17899": [
      {
        "length": 32,
        "start": 333
      },
      {
        "length": 32,
        "start": 782
      }
    ]
  },
  "inputSourceName": "project/contracts/Voting.sol",
  "devdoc": {
    "errors": {
      "OwnableInvalidOwner(address)": [
        {
          "details": "The owner is not a valid owner account. (eg. `address(0)`)"
        }
      ],
      "OwnableUnauthorizedAccount(address)": [
        {
          "details": "The caller account is not authorized to perform an operation."
        }
      ]
    },
    "kind": "dev",
    "methods": {
      "addVoters(address[],bool[])": {
        "details": "Only the contract owner can call this function. Emits `VoterAdded` for each updated entry.",
        "params": {
          "statuses": "True to allow, false to revoke",
          "voters": "Addresses to update in the allowlist"
        }
      },
      "owner()": {
        "details": "Returns the address of the current owner."
      },
      "register(uint256)": {
        "details": "A given allowlisted address can register exactly once. Reverts if      the caller is not allowlisted or has already registered, or if the      same commitment has been previously inserted. Emits `NewLeaf`.",
        "params": {
          "_commitment": "The Poseidon-based commitment to insert into the IMT"
        }
      },
      "renounceOwnership()": {
        "details": "Leaves the contract without owner. It will not be possible to call `onlyOwner` functions. Can only be called by the current owner. NOTE: Renouncing ownership will leave the contract without an owner, thereby disabling any functionality that is only available to the owner."
      },
      "transferOwnership(address)": {
        "details": "Transfers ownership of the contract to a new account (`newOwner`). Can only be called by the current owner."
      },
      "vote(bytes,bytes32,bytes32,bytes32,bytes32)": {
        "details": "Enforces single-use via `s_nullifierHashes`. Public inputs order must      match the circuit: nullifierHash, root, vote, depth. The `_vote`      value is interpreted as: 1 => yes, any other value => no. Emits `VoteCast`.",
        "params": {
          "_depth": "Tree depth used by the circuit",
          "_nullifierHash": "Unique nullifier to prevent double voting",
          "_proof": "Ultra Honk proof bytes",
          "_root": "Merkle root corresponding to the registered commitments tree",
          "_vote": "Encoded vote: 1 for yes, otherwise counted as no"
        }
      }
    },
    "version": 1
  },
  "evm": {
    "gasEstimates": {
      "creation": {
        "codeDepositCost": "670600",
        "executionCost": "infinite",
        "totalCost": "infinite"
      },
      "external": {
        "addVoters(address[],bool[])": "infinite",
        "getVoterData(address)": "4786",
        "getVotingData()": "infinite",
        "i_verifier()": "infinite",
        "owner()": "2352",
        "register(uint256)": "infinite",
        "renounceOwnership()": "infinite",
        "transferOwnership(address)": "28360",
        "vote(bytes,bytes32,bytes32,bytes32,bytes32)": "infinite"
      }
    }
  },
  "storageLayout": {
    "storage": [
      {
        "astId": 8,
        "contract": "project/contracts/Voting.sol:Voting",
        "label": "_owner",
        "offset": 0,
        "slot": "0",
        "type": "t_address"
      },
      {
        "astId": 17875,
        "contract": "project/contracts/Voting.sol:Voting",
        "label": "s_question",
        "offset": 0,
        "slot": "1",
        "type": "t_string_storage"
      },
      {
        "astId": 17879,
        "contract": "project/contracts/Voting.sol:Voting",
        "label": "s_voters",
        "offset": 0,
        "slot": "2",
        "type": "t_mapping(t_address,t_bool)"
      },
      {
        "astId": 17881,
        "contract": "project/contracts/Voting.sol:Voting",
        "label": "s_yesVotes",
        "offset": 0,
        "slot": "3",
        "type": "t_uint256"
      },
      {
        "astId": 17883,
        "contract": "project/contracts/Voting.sol:Voting",
        "label": "s_noVotes",
        "offset": 0,
        "slot": "4",
        "type": "t_uint256"
      },
      {
        "astId": 17888,
        "contract": "project/contracts/Voting.sol:Voting",
        "label": "s_hasRegistered",
        "offset": 0,
        "slot": "5",
        "type": "t_mapping(t_address,t_bool)"
      },
      {
        "astId": 17892,
        "contract": "project/contracts/Voting.sol:Voting",
        "label": "s_commitments",
        "offset": 0,
        "slot": "6",
        "type": "t_mapping(t_uint256,t_bool)"
      },
      {
        "astId": 17895,
        "contract": "project/contracts/Voting.sol:Voting",
        "label": "s_tree",
        "offset": 0,
        "slot": "7",
        "type": "t_struct(LeanIMTData)201_storage"
      },
      {
        "astId": 17903,
        "contract": "project/contracts/Voting.sol:Voting",
        "label": "s_nullifierHashes",
        "offset": 0,
        "slot": "11",
        "type": "t_mapping(t_bytes32,t_bool)"
      }
    ],
    "types": {
      "t_address": {
        "encoding": "inplace",
        "label": "address",
        "numberOfBytes": "20"
      },
      "t_bool": {
        "encoding": "inplace",
        "label": "bool",
        "numberOfBytes": "1"
      },
      "t_bytes32": {
        "encoding": "inplace",
        "label": "bytes32",
        "numberOfBytes": "32"
      },
      "t_mapping(t_address,t_bool)": {
        "encoding": "mapping",
        "key": "t_address",
        "label": "mapping(address => bool)",
        "numberOfBytes": "32",
        "value": "t_bool"
      },
      "t_mapping(t_bytes32,t_bool)": {
        "encoding": "mapping",
        "key": "t_bytes32",
        "label": "mapping(bytes32 => bool)",
        "numberOfBytes": "32",
        "value": "t_bool"
      },
      "t_mapping(t_uint256,t_bool)": {
        "encoding": "mapping",
        "key": "t_uint256",
        "label": "mapping(uint256 => bool)",
        "numberOfBytes": "32",
        "value": "t_bool"
      },
      "t_mapping(t_uint256,t_uint256)": {
        "encoding": "mapping",
        "key": "t_uint256",
        "label": "mapping(uint256 => uint256)",
        "numberOfBytes": "32",
        "value": "t_uint256"
      },
      "t_string_storage": {
        "encoding": "bytes",
        "label": "string",
        "numberOfBytes": "32"
      },
      "t_struct(LeanIMTData)201_storage": {
        "encoding": "inplace",
        "label": "struct LeanIMTData",
        "members": [
          {
            "astId": 190,
            "contract": "project/contracts/Voting.sol:Voting",
            "label": "size",
            "offset": 0,
            "slot": "0",
            "type": "t_uint256"
          },
          {
            "astId": 192,
            "contract": "project/contracts/Voting.sol:Voting",
            "label": "depth",
            "offset": 0,
            "slot": "1",
            "type": "t_uint256"
          },
          {
            "astId": 196,
            "contract": "project/contracts/Voting.sol:Voting",
            "label": "sideNodes",
            "offset": 0,
            "slot": "2",
            "type": "t_mapping(t_uint256,t_uint256)"
          },
          {
            "astId": 200,
            "contract": "project/contracts/Voting.sol:Voting",
            "label": "leaves",
            "offset": 0,
            "slot": "3",
            "type": "t_mapping(t_uint256,t_uint256)"
          }
        ],
        "numberOfBytes": "128"
      },
      "t_uint256": {
        "encoding": "inplace",
        "label": "uint256",
        "numberOfBytes": "32"
      }
    }
  },
  "userdoc": {
    "errors": {
      "Voting__CommitmentAlreadyAdded(uint256)": [
        {
          "notice": "Errors //////"
        }
      ]
    },
    "events": {
      "VoterAdded(address)": {
        "notice": "Events ///"
      }
    },
    "kind": "user",
    "methods": {
      "addVoters(address[],bool[])": {
        "notice": "Batch updates the allowlist of voter EOAs"
      },
      "getVotingData()": {
        "notice": "Getter Functions ///"
      },
      "i_verifier()": {
        "notice": "Checkpoint 6 //////"
      },
      "register(uint256)": {
        "notice": "Registers a commitment leaf for an allowlisted address"
      },
      "vote(bytes,bytes32,bytes32,bytes32,bytes32)": {
        "notice": "Casts a vote using a zero-knowledge proof"
      }
    },
    "version": 1
  },
  "argsData": "0x000000000000000000000000000000000000000000000000000000000000000100000000000000000000000000000000000000000000000000000000000000020000000000000000000000000000000000000000000000000000000000000060000000000000000000000000000000000000000000000000000000000000001853686f756c64207765206275696c64207a6b20617070733f0000000000000000",
  "libraries": {
    "LeanIMT": "0x0000000000000000000000000000000000000003"
  },
  "transaction": {
    "nonce": "0x4",
    "hash": "0xdb42f9e960fa4ab9c6b7aabcbbf2c49a3723e531d32a358ccd0fb51cb243100e",
    "origin": "0x62abb8cbe80cdd058a562369de31d0eb9b2faeb6"
  }
}