{
  "address": "0x22cf0318fa317329857a9931f1d770cde4c08472",
  "abi": [
    {
      "inputs": [
        {
          "internalType": "address",
          "name": "_owner",
          "type": "address"
        }
      ],
      "stateMutability": "nonpayable",
      "type": "constructor"
    },
    {
      "anonymous": false,
      "inputs": [
        {
          "indexed": true,
          "internalType": "address",
          "name": "greetingSetter",
          "type": "address"
        },
        {
          "indexed": false,
          "internalType": "string",
          "name": "newGreeting",
          "type": "string"
        },
        {
          "indexed": false,
          "internalType": "bool",
          "name": "premium",
          "type": "bool"
        },
        {
          "indexed": false,
          "internalType": "uint256",
          "name": "value",
          "type": "uint256"
        }
      ],
      "name": "GreetingChange",
      "type": "event"
    },
    {
      "inputs": [],
      "name": "greeting",
      "outputs": [
        {
          "internalType": "string",
          "name": "",
          "type": "string"
        }
      ],
      "stateMutability": "view",
      "type": "function"
    },
    {
      "inputs": [],
      "name": "owner",
      "outputs": [
        {
          "internalType": "address",
          "name": "",
          "type": "address"
        }
      ],
      "stateMutability": "view",
      "type": "function"
    },
    {
      "inputs": [],
      "name": "premium",
      "outputs": [
        {
          "internalType": "bool",
          "name": "",
          "type": "bool"
        }
      ],
      "stateMutability": "view",
      "type": "function"
    },
    {
      "inputs": [
        {
          "internalType": "string",
          "name": "_newGreeting",
          "type": "string"
        }
      ],
      "name": "setGreeting",
      "outputs": [],
      "stateMutability": "payable",
      "type": "function"
    },
    {
      "inputs": [],
      "name": "totalCounter",
      "outputs": [
        {
          "internalType": "uint256",
          "name": "",
          "type": "uint256"
        }
      ],
      "stateMutability": "view",
      "type": "function"
    },
    {
      "inputs": [
        {
          "internalType": "address",
          "name": "",
          "type": "address"
        }
      ],
      "name": "userGreetingCounter",
      "outputs": [
        {
          "internalType": "uint256",
          "name": "",
          "type": "uint256"
        }
      ],
      "stateMutability": "view",
      "type": "function"
    },
    {
      "inputs": [],
      "name": "withdraw",
      "outputs": [],
      "stateMutability": "nonpayable",
      "type": "function"
    },
    {
      "stateMutability": "payable",
      "type": "receive"
    }
  ],
  "contractName": "YourContract",
  "sourceName": "contracts/YourContract.sol",
  "bytecode": "0x60e0604052601c60a09081527f4275696c64696e6720556e73746f707061626c6520417070732121210000000060c0525f9061003b908261011d565b506001805460ff191690555f600255348015610055575f5ffd5b506040516109f33803806109f3833981016040819052610074916101d7565b6001600160a01b0316608052610204565b634e487b7160e01b5f52604160045260245ffd5b600181811c908216806100ad57607f821691505b6020821081036100cb57634e487b7160e01b5f52602260045260245ffd5b50919050565b601f82111561011857805f5260205f20601f840160051c810160208510156100f65750805b601f840160051c820191505b81811015610115575f8155600101610102565b50505b505050565b81516001600160401b0381111561013657610136610085565b61014a816101448454610099565b846100d1565b6020601f82116001811461017c575f83156101655750848201515b5f19600385901b1c1916600184901b178455610115565b5f84815260208120601f198516915b828110156101ab578785015182556020948501946001909201910161018b565b50848210156101c857868401515f19600387901b60f8161c191681555b50505050600190811b01905550565b5f602082840312156101e7575f5ffd5b81516001600160a01b03811681146101fd575f5ffd5b9392505050565b6080516107ca6102295f395f818160a30152818161019801526101fd01526107ca5ff3fe608060405260043610610071575f3560e01c8063a41368621161004c578063a413686214610105578063cea49c3c14610118578063e0a73a9314610143578063ef690cc01461016c575f5ffd5b80633ccfd60b1461007c5780638da5cb5b1461009257806397feba9d146100e2575f5ffd5b3661007857005b5f5ffd5b348015610087575f5ffd5b5061009061018d565b005b34801561009d575f5ffd5b506100c57f000000000000000000000000000000000000000000000000000000000000000081565b6040516001600160a01b0390911681526020015b60405180910390f35b3480156100ed575f5ffd5b506100f760025481565b6040519081526020016100d9565b61009061011336600461048f565b6102b3565b348015610123575f5ffd5b506100f7610132366004610542565b60036020525f908152604090205481565b34801561014e575f5ffd5b5060015461015c9060ff1681565b60405190151581526020016100d9565b348015610177575f5ffd5b50610180610381565b6040516100d9919061059d565b336001600160a01b037f000000000000000000000000000000000000000000000000000000000000000016146101fa5760405162461bcd60e51b815260206004820152600d60248201526c2737ba103a34329027bbb732b960991b60448201526064015b60405180910390fd5b5f7f00000000000000000000000000000000000000000000000000000000000000006001600160a01b0316476040515f6040518083038185875af1925050503d805f8114610263576040519150601f19603f3d011682016040523d82523d5f602084013e610268565b606091505b50509050806102b05760405162461bcd60e51b81526020600482015260146024820152732330b4b632b2103a379039b2b7321022ba3432b960611b60448201526064016101f1565b50565b6102d660405180606001604052806021815260200161077460219139823361040c565b5f6102e18282610632565b50600160025f8282546102f491906106ed565b9091555050335f9081526003602052604081208054600192906103189084906106ed565b90915550503415610334576001805460ff19168117905561033f565b6001805460ff191690555b60405133907f94cbd7e04dca26a7667654f6448b2ca0a40fec602118dc5fd8c82b9cf3c645ad906103769084903480151591610712565b60405180910390a250565b5f805461038d906105af565b80601f01602080910402602001604051908101604052809291908181526020018280546103b9906105af565b80156104045780601f106103db57610100808354040283529160200191610404565b820191905f5260205f20905b8154815290600101906020018083116103e757829003601f168201915b505050505081565b61045383838360405160240161042493929190610736565b60408051601f198184030181529190526020810180516001600160e01b03166395ed019560e01b179052610458565b505050565b6102b0815f6a636f6e736f6c652e6c6f6790505f5f835160208501845afa505050565b634e487b7160e01b5f52604160045260245ffd5b5f6020828403121561049f575f5ffd5b813567ffffffffffffffff8111156104b5575f5ffd5b8201601f810184136104c5575f5ffd5b803567ffffffffffffffff8111156104df576104df61047b565b604051601f8201601f19908116603f0116810167ffffffffffffffff8111828210171561050e5761050e61047b565b604052818152828201602001861015610525575f5ffd5b816020840160208301375f91810160200191909152949350505050565b5f60208284031215610552575f5ffd5b81356001600160a01b0381168114610568575f5ffd5b9392505050565b5f81518084528060208401602086015e5f602082860101526020601f19601f83011685010191505092915050565b602081525f610568602083018461056f565b600181811c908216806105c357607f821691505b6020821081036105e157634e487b7160e01b5f52602260045260245ffd5b50919050565b601f82111561045357805f5260205f20601f840160051c8101602085101561060c5750805b601f840160051c820191505b8181101561062b575f8155600101610618565b5050505050565b815167ffffffffffffffff81111561064c5761064c61047b565b6106608161065a84546105af565b846105e7565b6020601f821160018114610692575f831561067b5750848201515b5f19600385901b1c1916600184901b17845561062b565b5f84815260208120601f198516915b828110156106c157878501518255602094850194600190920191016106a1565b50848210156106de57868401515f19600387901b60f8161c191681555b50505050600190811b01905550565b8082018082111561070c57634e487b7160e01b5f52601160045260245ffd5b92915050565b606081525f610724606083018661056f565b93151560208301525060400152919050565b606081525f610748606083018661056f565b828103602084015261075a818661056f565b91505060018060a01b038316604083015294935050505056fe53657474696e67206e6577206772656574696e6720272573272066726f6d202573a2646970667358221220740bf221c02dbf021ceb555a7a494ec5afc65aa4aab76f5e6b420940abfcea2d64736f6c634300081e0033",
  "linkReferences": {},
  "deployedLinkReferences": {},
  "immutableReferences": {
    "18278": [
      {
        "length": 32,
        "start": 163
      },
      {
        "length": 32,
        "start": 408
      },
      {
        "length": 32,
        "start": 509
      }
    ]
  },
  "inputSourceName": "project/contracts/YourContract.sol",
  "devdoc": {
    "author": "BuidlGuidl",
    "kind": "dev",
    "methods": {
      "setGreeting(string)": {
        "params": {
          "_newGreeting": "(string memory) - new greeting to save on the contract"
        }
      }
    },
    "version": 1
  },
  "evm": {
    "gasEstimates": {
      "creation": {
        "codeDepositCost": "398800",
        "executionCost": "infinite",
        "totalCost": "infinite"
      },
      "external": {
        "greeting()": "infinite",
        "owner()": "infinite",
        "premium()": "2353",
        "setGreeting(string)": "infinite",
        "totalCounter()": "2339",
        "userGreetingCounter(address)": "2503",
        "withdraw()": "infinite"
      }
    }
  },
  "storageLayout": {
    "storage": [
      {
        "astId": 18281,
        "contract": "project/contracts/YourContract.sol:YourContract",
        "label": "greeting",
        "offset": 0,
        "slot": "0",
        "type": "t_string_storage"
      },
      {
        "astId": 18284,
        "contract": "project/contracts/YourContract.sol:YourContract",
        "label": "premium",
        "offset": 0,
        "slot": "1",
        "type": "t_bool"
      },
      {
        "astId": 18287,
        "contract": "project/contracts/YourContract.sol:YourContract",
        "label": "totalCounter",
        "offset": 0,
        "slot": "2",
        "type": "t_uint256"
      },
      {
        "astId": 18291,
        "contract": "project/contracts/YourContract.sol:YourContract",
        "label": "userGreetingCounter",
        "offset": 0,
        "slot": "3",
        "type": "t_mapping(t_address,t_uint256)"
      }
    ],
    "types": {
      "t_address": {
        "encoding": "inplace",
        "label": "address",
        "numberOfBytes": "20"
      },
      "t_bool": {
        "encoding": "inplace",
        "label": "bool",
        "numberOfBytes": "1"
      },
      "t_mapping(t_address,t_uint256)": {
        "encoding": "mapping",
        "key": "t_address",
        "label": "mapping(address => uint256)",
        "numberOfBytes": "32",
        "value": "t_uint256"
      },
      "t_string_storage": {
        "encoding": "bytes",
        "label": "string",
        "numberOfBytes": "32"
      },
      "t_uint256": {
        "encoding": "inplace",
        "label": "uint256",
        "numberOfBytes": "32"
      }
    }
  },
  "userdoc": {
    "kind": "user",
    "methods": {
      "setGreeting(string)": {
        "notice": "Function that allows anyone to change the state variable \"greeting\" of the contract and increase the counters"
      },
      "withdraw()": {
        "notice": "Function that allows the owner to withdraw all the Ether in the contract The function can only be called by the owner of the contract as defined by the isOwner modifier"
      }
    },
    "notice": "A smart contract that allows changing a state variable of the contract and tracking the changes It also allows the owner to withdraw the Ether in the contract",
    "version": 1
  },
  "argsData": "0x00000000000000000000000062abb8cbe80cdd058a562369de31d0eb9b2faeb6",
  "transaction": {
    "hash": "0x309988b598f84b591a4973a6b66b64a1bf526004b794bf312f3562e4b06c2b64",
    "origin": "0x62abb8cbe80cdd058a562369de31d0eb9b2faeb6"
  }
}